{
  "contractName": "GBTokenAndCrowdsale",
  "abi": [
    {
      "inputs": [
        {
          "internalType": "uint256",
          "name": "initialSupply",
          "type": "uint256"
        }
      ],
      "stateMutability": "nonpayable",
      "type": "constructor"
    },
    {
      "anonymous": false,
      "inputs": [
        {
          "indexed": true,
          "internalType": "address",
          "name": "recipient",
          "type": "address"
        },
        {
          "indexed": false,
          "internalType": "uint256",
          "name": "fundsWithdrawnInWei",
          "type": "uint256"
        }
      ],
      "name": "ETHFundsWithdrawn",
      "type": "event"
    },
    {
      "anonymous": false,
      "inputs": [
        {
          "indexed": true,
          "internalType": "address",
          "name": "from",
          "type": "address"
        },
        {
          "indexed": false,
          "internalType": "uint256",
          "name": "fundsReceivedInWei",
          "type": "uint256"
        },
        {
          "indexed": false,
          "internalType": "uint256",
          "name": "tokensIssued",
          "type": "uint256"
        }
      ],
      "name": "FundsRaised",
      "type": "event"
    },
    {
      "anonymous": false,
      "inputs": [
        {
          "indexed": true,
          "internalType": "address",
          "name": "from",
          "type": "address"
        },
        {
          "indexed": true,
          "internalType": "address",
          "name": "to",
          "type": "address"
        },
        {
          "indexed": false,
          "internalType": "uint256",
          "name": "value",
          "type": "uint256"
        }
      ],
      "name": "TransferGB",
      "type": "event"
    },
    {
      "inputs": [
        {
          "internalType": "address",
          "name": "receiver",
          "type": "address"
        },
        {
          "internalType": "uint256",
          "name": "amount",
          "type": "uint256"
        }
      ],
      "name": "sendTokens",
      "outputs": [],
      "stateMutability": "nonpayable",
      "type": "function"
    },
    {
      "inputs": [
        {
          "internalType": "address",
          "name": "addr",
          "type": "address"
        }
      ],
      "name": "getBalance",
      "outputs": [
        {
          "internalType": "uint256",
          "name": "",
          "type": "uint256"
        }
      ],
      "stateMutability": "view",
      "type": "function",
      "constant": true
    },
    {
      "inputs": [],
      "name": "buyTokensWithEther",
      "outputs": [],
      "stateMutability": "payable",
      "type": "function",
      "payable": true
    },
    {
      "inputs": [],
      "name": "withdrawRaisedFunds",
      "outputs": [],
      "stateMutability": "nonpayable",
      "type": "function"
    }
  ],
  "bytecode": "0x608060405234801561001057600080fd5b506040516109283803806109288339818101604052810190610032919061015a565b806000803373ffffffffffffffffffffffffffffffffffffffff1673ffffffffffffffffffffffffffffffffffffffff1681526020019081526020016000208190555033600160006101000a81548173ffffffffffffffffffffffffffffffffffffffff021916908373ffffffffffffffffffffffffffffffffffffffff160217905550600160009054906101000a900473ffffffffffffffffffffffffffffffffffffffff16600260006101000a81548173ffffffffffffffffffffffffffffffffffffffff021916908373ffffffffffffffffffffffffffffffffffffffff16021790555050610187565b600080fd5b6000819050919050565b61013781610124565b811461014257600080fd5b50565b6000815190506101548161012e565b92915050565b6000602082840312156101705761016f61011f565b5b600061017e84828501610145565b91505092915050565b610792806101966000396000f3fe60806040526004361061003f5760003560e01c806305ab421d146100445780635413713a1461006d578063cd38ba9514610084578063f8b2cb4f1461008e575b600080fd5b34801561005057600080fd5b5061006b60048036038101906100669190610583565b6100cb565b005b34801561007957600080fd5b50610082610224565b005b61008c610359565b005b34801561009a57600080fd5b506100b560048036038101906100b091906105c3565b6104a2565b6040516100c291906105ff565b60405180910390f35b806000803373ffffffffffffffffffffffffffffffffffffffff1673ffffffffffffffffffffffffffffffffffffffff168152602001908152602001600020541061022057806000803373ffffffffffffffffffffffffffffffffffffffff1673ffffffffffffffffffffffffffffffffffffffff168152602001908152602001600020600082825461015e9190610649565b92505081905550806000808473ffffffffffffffffffffffffffffffffffffffff1673ffffffffffffffffffffffffffffffffffffffff16815260200190815260200160002060008282546101b3919061067d565b925050819055508173ffffffffffffffffffffffffffffffffffffffff163373ffffffffffffffffffffffffffffffffffffffff167fdcc0790ea4d5ede28043b8cace5a24a55841fcad2864794570c855cb877d66758360405161021791906105ff565b60405180910390a35b5050565b600260009054906101000a900473ffffffffffffffffffffffffffffffffffffffff1673ffffffffffffffffffffffffffffffffffffffff163373ffffffffffffffffffffffffffffffffffffffff160361035757600260009054906101000a900473ffffffffffffffffffffffffffffffffffffffff1673ffffffffffffffffffffffffffffffffffffffff166108fc6003549081150290604051600060405180830381858888f193505050501580156102e3573d6000803e3d6000fd5b50600260009054906101000a900473ffffffffffffffffffffffffffffffffffffffff1673ffffffffffffffffffffffffffffffffffffffff167fd276aa389286096a83782f228be263ca61d0276e677ddf59fa0005896d2a505860035460405161034e91906105ff565b60405180910390a25b565b60006001346103689190610702565b905080600080600160009054906101000a900473ffffffffffffffffffffffffffffffffffffffff1673ffffffffffffffffffffffffffffffffffffffff1673ffffffffffffffffffffffffffffffffffffffff16815260200190815260200160002060008282546103da9190610649565b92505081905550806000803373ffffffffffffffffffffffffffffffffffffffff1673ffffffffffffffffffffffffffffffffffffffff168152602001908152602001600020600082825461042f919061067d565b925050819055503460036000828254610448919061067d565b925050819055503373ffffffffffffffffffffffffffffffffffffffff167f28c8db2c4624ddb3f3acc2bc3fe769f01cf8d45e3e7a6819c4f91a9aa2340df53483604051610497929190610733565b60405180910390a250565b60008060008373ffffffffffffffffffffffffffffffffffffffff1673ffffffffffffffffffffffffffffffffffffffff168152602001908152602001600020549050919050565b600080fd5b600073ffffffffffffffffffffffffffffffffffffffff82169050919050565b600061051a826104ef565b9050919050565b61052a8161050f565b811461053557600080fd5b50565b60008135905061054781610521565b92915050565b6000819050919050565b6105608161054d565b811461056b57600080fd5b50565b60008135905061057d81610557565b92915050565b6000806040838503121561059a576105996104ea565b5b60006105a885828601610538565b92505060206105b98582860161056e565b9150509250929050565b6000602082840312156105d9576105d86104ea565b5b60006105e784828501610538565b91505092915050565b6105f98161054d565b82525050565b600060208201905061061460008301846105f0565b92915050565b7f4e487b7100000000000000000000000000000000000000000000000000000000600052601160045260246000fd5b60006106548261054d565b915061065f8361054d565b9250828210156106725761067161061a565b5b828203905092915050565b60006106888261054d565b91506106938361054d565b9250827fffffffffffffffffffffffffffffffffffffffffffffffffffffffffffffffff038211156106c8576106c761061a565b5b828201905092915050565b7f4e487b7100000000000000000000000000000000000000000000000000000000600052601260045260246000fd5b600061070d8261054d565b91506107188361054d565b925082610728576107276106d3565b5b828204905092915050565b600060408201905061074860008301856105f0565b61075560208301846105f0565b939250505056fea2646970667358221220da6a6c6e9c72166afefc0343befd10094c11c6a1956b27cf669c33e24bf0b9f364736f6c634300080f0033",
  "immutableReferences": {},
  "source": "\n// SPDX-License-Identifier: MIT\npragma solidity ^0.8.4;\nimport \"./Token.sol\";\ncontract GBTokenAndCrowdsale {\n    mapping (address => uint) balances;\n    \n    /* Address of the wallet holding the token funds when they are first created */\n    address payable tokenFundsAddress;\n    \n    /* Approved address of the account that will receive the raised Ether funds */\n    address payable beneficiary;\n    \n    /* Keep track of ETH funds raised */\n    uint amountRaised;\n\n    /* Price of a GBT token, in 'wei' denomination */\n    uint constant private TOKEN_PRICE_IN_WEI = 1 * 1 wei;\n\n    /* This generates a public event on the blockchain that will notify listening clients */\n    event TransferGB(address indexed from, address indexed to, uint value);\n    event FundsRaised(address indexed from, uint fundsReceivedInWei, uint tokensIssued);\n    event ETHFundsWithdrawn(address indexed recipient, uint fundsWithdrawnInWei);\n    \n  \n    constructor(uint initialSupply){\n     \n        balances[msg.sender] = initialSupply;\n        \n        // store a reference to this contract creator's address, \n        // so we can debit tokens from this address each time we distribute tokens to\n        // a crowdsale participant\n        tokenFundsAddress = payable(msg.sender);\n        \n        // the beneficiary for the crowd sale (the one who will receive the raised ETH)\n        // should be the same as the account holding the tokens to be given away\n        beneficiary = tokenFundsAddress;\n    }\n    \n    /* Send tokens from the message sender's account to the specified account */\n    function sendTokens(address receiver, uint amount) public {\n        // if sender does not have enough money\n        if (balances[msg.sender] < amount) return;\n        \n        // take funds out of sender's account\n        balances[msg.sender] -= amount;\n        \n        // add those funds to receipient's account\n        balances[receiver] += amount;\n\n        emit TransferGB(msg.sender, receiver, amount);\n    }\n    \n    function getBalance(address addr) public view returns (uint) {\n        return balances[addr];\n    }\n\n    function buyTokensWithEther() public payable {\n        // calculate # of tokens to give based on \n        // amount of Ether received and the token's fixed price\n        uint numTokens = msg.value / TOKEN_PRICE_IN_WEI;\n        \n        // take funds out of our token holdings\n        balances[tokenFundsAddress] -= numTokens;\n        \n        // deposit those tokens into the buyer's account\n        balances[msg.sender] += numTokens;\n        \n        // update our tracker of total ETH raised\n        // during this crowdsale\n        amountRaised += msg.value;\n\n        emit FundsRaised(msg.sender, msg.value, numTokens);\n    }\n    \n    function withdrawRaisedFunds() public {\n        \n        // verify that the account requesting the funds\n        // is the approved beneficiary\n        if (msg.sender != beneficiary)\n            return;\n        \n        // transfer ETH from this contract's balance\n        // to the rightful recipient\n        beneficiary.transfer(amountRaised);\n        \n        emit ETHFundsWithdrawn(beneficiary, amountRaised);\n        \n    }\n}",
  "sourcePath": "/home/abhaypratap/Downloads/ICO-main/contracts/ICO.sol",
  "compiler": {
    "name": "solc",
    "version": "0.8.15+commit.e14f2714.Emscripten.clang"
  },
  "schemaVersion": "3.4.7",
  "updatedAt": "2022-07-01T09:43:12.764Z",
  "networkType": "ethereum",
  "devdoc": {
    "kind": "dev",
    "methods": {},
    "version": 1
  },
  "userdoc": {
    "kind": "user",
    "methods": {},
    "version": 1
  }
}