{
  "contractName": "GBToken",
  "abi": [
    {
      "inputs": [
        {
          "internalType": "uint256",
          "name": "initialSupply",
          "type": "uint256"
        }
      ],
      "stateMutability": "nonpayable",
      "type": "constructor"
    },
    {
      "anonymous": false,
      "inputs": [
        {
          "indexed": true,
          "internalType": "address",
          "name": "from",
          "type": "address"
        },
        {
          "indexed": true,
          "internalType": "address",
          "name": "to",
          "type": "address"
        },
        {
          "indexed": false,
          "internalType": "uint256",
          "name": "value",
          "type": "uint256"
        }
      ],
      "name": "TransferGB",
      "type": "event"
    },
    {
      "inputs": [
        {
          "internalType": "address",
          "name": "receiver",
          "type": "address"
        },
        {
          "internalType": "uint256",
          "name": "amount",
          "type": "uint256"
        }
      ],
      "name": "sendTokens",
      "outputs": [],
      "stateMutability": "nonpayable",
      "type": "function"
    },
    {
      "inputs": [
        {
          "internalType": "address",
          "name": "addr",
          "type": "address"
        }
      ],
      "name": "getBalance",
      "outputs": [
        {
          "internalType": "uint256",
          "name": "",
          "type": "uint256"
        }
      ],
      "stateMutability": "view",
      "type": "function"
    }
  ],
  "bytecode": "0x608060405234801561001057600080fd5b50604051610539380380610539833981810160405281019061003291906100b6565b806000803373ffffffffffffffffffffffffffffffffffffffff1673ffffffffffffffffffffffffffffffffffffffff16815260200190815260200160002081905550506100e3565b600080fd5b6000819050919050565b61009381610080565b811461009e57600080fd5b50565b6000815190506100b08161008a565b92915050565b6000602082840312156100cc576100cb61007b565b5b60006100da848285016100a1565b91505092915050565b610447806100f26000396000f3fe608060405234801561001057600080fd5b50600436106100365760003560e01c806305ab421d1461003b578063f8b2cb4f14610057575b600080fd5b610055600480360381019061005091906102c1565b610087565b005b610071600480360381019061006c9190610301565b6101e0565b60405161007e919061033d565b60405180910390f35b806000803373ffffffffffffffffffffffffffffffffffffffff1673ffffffffffffffffffffffffffffffffffffffff16815260200190815260200160002054106101dc57806000803373ffffffffffffffffffffffffffffffffffffffff1673ffffffffffffffffffffffffffffffffffffffff168152602001908152602001600020600082825461011a9190610387565b92505081905550806000808473ffffffffffffffffffffffffffffffffffffffff1673ffffffffffffffffffffffffffffffffffffffff168152602001908152602001600020600082825461016f91906103bb565b925050819055508173ffffffffffffffffffffffffffffffffffffffff163373ffffffffffffffffffffffffffffffffffffffff167fdcc0790ea4d5ede28043b8cace5a24a55841fcad2864794570c855cb877d6675836040516101d3919061033d565b60405180910390a35b5050565b60008060008373ffffffffffffffffffffffffffffffffffffffff1673ffffffffffffffffffffffffffffffffffffffff168152602001908152602001600020549050919050565b600080fd5b600073ffffffffffffffffffffffffffffffffffffffff82169050919050565b60006102588261022d565b9050919050565b6102688161024d565b811461027357600080fd5b50565b6000813590506102858161025f565b92915050565b6000819050919050565b61029e8161028b565b81146102a957600080fd5b50565b6000813590506102bb81610295565b92915050565b600080604083850312156102d8576102d7610228565b5b60006102e685828601610276565b92505060206102f7858286016102ac565b9150509250929050565b60006020828403121561031757610316610228565b5b600061032584828501610276565b91505092915050565b6103378161028b565b82525050565b6000602082019050610352600083018461032e565b92915050565b7f4e487b7100000000000000000000000000000000000000000000000000000000600052601160045260246000fd5b60006103928261028b565b915061039d8361028b565b9250828210156103b0576103af610358565b5b828203905092915050565b60006103c68261028b565b91506103d18361028b565b9250827fffffffffffffffffffffffffffffffffffffffffffffffffffffffffffffffff0382111561040657610405610358565b5b82820190509291505056fea26469706673582212209b04d79deabee2f1a1494d28624ea6b8d3798f3452e5beef9e300fbabb99f99b64736f6c634300080f0033",
  "immutableReferences": {},
  "source": "// SPDX-License-Identifier: MIT\n\n pragma solidity ^0.8.4;\ncontract GBToken {\n\n    /* This creates an array with all balances */\n    mapping (address => uint) balances;\n    \n    /* This generates a public event on the blockchain that will notify listening clients */\n    event TransferGB(address indexed from, address indexed to, uint value);\n\n    /* Initialize the contract, this is the \"constructor\" */\n    constructor(uint initialSupply) {\n        // give all tokens to the creator of the contract\n        balances[msg.sender] = initialSupply;\n    }\n    \n    /* Send tokens from the message sender's account to the specified account */\n    function sendTokens(address receiver, uint amount) public {\n        // if sender does not have enough money\n        if (balances[msg.sender] < amount) return;\n        \n        // take funds out of sender's account\n        balances[msg.sender] -= amount;\n        \n        // add those funds to receipient's account\n        balances[receiver] += amount;\n\n        emit TransferGB(msg.sender, receiver, amount);\n    }\n    \n    function getBalance(address addr) public view returns (uint) {\n        return balances[addr];\n    }\n}   ",
  "sourcePath": "/home/abhaypratap/Downloads/ICO-main/contracts/Token.sol",
  "compiler": {
    "name": "solc",
    "version": "0.8.15+commit.e14f2714.Emscripten.clang"
  },
  "schemaVersion": "3.4.7",
  "updatedAt": "2022-06-30T06:55:47.607Z",
  "devdoc": {
    "kind": "dev",
    "methods": {},
    "version": 1
  },
  "userdoc": {
    "kind": "user",
    "methods": {},
    "version": 1
  }
}